:1000000019C02BC02AC029C028C027C026C025C0BF
:1000100024C023C022C021C020C01FC01EC01DC0DC
:100020001CC01BC01AC019C018C017C016C015C00C
:1000300014C013C011241FBECFEFD4E0DEBFCDBF6C
:1000400011E0A0E0B1E0EEE4F1E002C005900D9215
:10005000AE30B107D9F71BD078C0D2CF8091C000A5
:1000600087FFFCCF8091C60008959091C00095FF56
:10007000FCCF8093C6000895CF93DF93EC01899164
:10008000811103C0DF91CF910895EFDFF8CF00D049
:1000900000D00F92CDB7DEB782E08AB91092C500CA
:1000A0008FEF8093C4008091C10088618093C1006C
:1000B0008EE284B9299A83E18CBD8CB580648CBDB5
:1000C000BB24BA9480E2A82ECC24C394D12C2998C6
:1000D00083EF91E00197F1F700C00000299ABEBCC0
:1000E0000DB407FEFDCFEEB480E091E0C5DF00E087
:1000F00010E0F12C83E091E0BFDF80E3800F898383
:10010000AA821B82CE010196B7DFC601002E02C073
:10011000880F991F0A94E2F78E219F21892B91F075
:1001200089E091E0A9DF0F5F1F4F0830110511F73B
:100130009FE724E88EE1915020408040E1F700C025
:0E0140000000C5CF8BE091E0EDCFF894FFCF2B
:0E014E000A0D000A0D44495000310030000037
:00000001FF
