:1000000010C017C016C015C014C013C012C011C054
:1000100010C00FC00EC00DC00CC00BC00AC009C07C
:1000200008C011241FBECFE5D1E0DEBFCDBF0ED08A
:1000300025C0E6CFDF988FB980E48EB98BE1769B3F
:1000400003C0DF9A8FB108958DB9F9CFD6988AB3DE
:10005000806B8ABB81E1EEDF8FEFECDFC82F82E29D
:10006000E9DF81E08C0FE6DF2FE38DE093E02150A4
:1000700080409040E1F700C00000ECCFF894FFCF43
:00000001FF
