:1000000010C017C016C015C014C013C012C011C054
:1000100010C00FC00EC00DC00CC00BC00AC009C07C
:1000200008C011241FBECFE5D1E0DEBFCDBFC6D0D2
:10003000E2C0E6CF9EEF611101C090EF9EB98FB98B
:100040008BE292E09A95F1F78DB9CC9BFECF00C080
:1000500000C000008DB9CC99FECF769BF2CF82E034
:100060008A95F1F78FB19FEF9FB9D69A0895DC98E2
:10007000CC99FECF60E0DEDFD69861E08FEFDADF6B
:10008000809581700895DC9ACC9BFECF82E08A95A2
:10009000F1F7DE9800C000C00000DC98CC99FECFDC
:1000A000DE9A8EB1881F8827881F0895DE98DC9A13
:1000B000CC9BFECF00C000C00000DE9A82E08A9593
:1000C000F1F78EB185FB882780F908958BB38065A1
:1000D0008BBB8AB380658ABB8FEF8FB98AE28DB9FB
:1000E00080EF8EB90895EF92FF920F931F93CF93F5
:1000F000DF93D82FC62F7A018901C5DF882361F0ED
:100100008D2F880FB4DF882339F08C2FB0DFE70103
:100110000E0D1F1D81110CC080E0DF91CF911F914A
:100120000F91FF90EF9008958991A1DF8823A1F3AB
:10013000C017D107C9F7DF91CF911F910F91FF90A1
:10014000EF90B4CFFF920F931F93CF93DF93F82ECE
:10015000EA01890120E030E040E050E0C4DF88237C
:1001600031F191DF882319F18F2D880F81607FDFB6
:100170008823E9F02097B9F4DF91CF911F910F9177
:10018000FF9094CFD69860E08FEF54DF899381E0A1
:100190000130110509F080E061E081954BDF0150ED
:1001A0001109882321F00115110561F7E5CF80E0E1
:1001B000DF91CF911F910F91FF9008950F92CDB7CE
:1001C000DEB7198283DF21E030E0AE014F5F5F4F81
:1001D000698181E1B7DF69816F5F698320E030E089
:1001E00040E050E081E17FDF83E294EF0197F1F797
:0A01F00000C00000E8CFF894FFCF34
:00000001FF
