:1000000019C02BC02AC029C028C027C026C025C0BF
:1000100024C023C022C021C020C01FC01EC01DC0DC
:100020001CC01BC01AC019C018C017C016C015C00C
:1000300014C013C011241FBECFEFD4E0DEBFCDBF6C
:1000400011E0A0E0B1E0E8EDF0E002C005900D9213
:10005000A231B107D9F702D03DC0D2CFCDB7DEB7BC
:1000600060970FB6F894DEBF0FBECDBF80E1E0E031
:10007000F1E0DE01119601900D928A95E1F78EE292
:1000800084B9299883E18CBD8CB580648CBD80E0F7
:1000900090E0FC01EF70FF2721E030E02C0F3D1FC6
:1000A000E20FF31F20812EBD0DB407FEFDCF299A6C
:1000B000EFE1FEE43197F1F700C0000029980196C6
:1000C000FFEF29E638E1F15020403040E1F700C071
:0800D0000000DFCFF894FFCF20
:1000D8003F065B4F666D7D077F6F777C395E797170
:0200E800000016
:00000001FF
