:1000000019C020C01FC01EC01DC01CC01BC01AC00C
:1000100019C018C017C016C015C014C013C012C034
:1000200011C010C00FC00EC00DC00CC00BC00AC064
:1000300009C008C011241FBECFEFD4E0DEBFCDBF82
:1000400002D03AC0DDCF87E084B985B1887F85B919
:100050002A9A2FE38DE093E0215080409040E1F711
:1000600000C0000085B1887F85B9299A2FE986E80C
:1000700091E0215080409040E1F700C0000085B140
:10008000887F85B9289A2FE38DE093E02150804046
:100090009040E1F700C0000085B1887F85B985B147
:1000A000836085B92FE986E891E021508040904037
:0C00B000E1F700C00000C9CFF894FFCFBA
:00000001FF
