:1000000019C020C01FC01EC01DC01CC01BC01AC00C
:1000100019C018C017C016C015C014C013C012C034
:1000200011C010C00FC00EC00DC00CC00BC00AC064
:1000300009C008C011241FBECFEFD4E0DEBFCDBF82
:1000400002D026C0DDCF00D000D0CDB7DEB781E032
:1000500084B985B921E085B1822785B919821A82D0
:100060001B821C8289819A81AB81BC8180329E4433
:10007000A105B10584F7000089819A81AB81BC811B
:100080000196A11DB11D89839A83AB83BC83EACFFE
:04009000F894FFCF12
:00000001FF
