:1000000019C020C01FC01EC01DC01CC01BC01AC00C
:1000100019C018C017C016C015C014C013C012C034
:1000200011C010C00FC00EC00DC00CC00BC00AC064
:1000300009C008C011241FBECFEFD4E0DEBFCDBF82
:1000400010D01FC0DDCF8091C00087FFFCCF809112
:10005000C60008959091C00095FFFCCF8093C60024
:10006000089582E08AB91092C5008FEF8093C40092
:100070008091C10088618093C100E5DF8F5FEADF76
:06008000FCCFF894FFCF55
:00000001FF
